{
	"DelegateCallExample.sol": {
		"SmallProxy": {
			"abi": [
				{
					"stateMutability": "payable",
					"type": "fallback"
				},
				{
					"inputs": [
						{
							"internalType": "uint256",
							"name": "numberToUpdate",
							"type": "uint256"
						}
					],
					"name": "getDataToTransact",
					"outputs": [
						{
							"internalType": "bytes",
							"name": "",
							"type": "bytes"
						}
					],
					"stateMutability": "pure",
					"type": "function"
				},
				{
					"inputs": [],
					"name": "readStorage",
					"outputs": [
						{
							"internalType": "uint256",
							"name": "valueAtStorageSlotZero",
							"type": "uint256"
						}
					],
					"stateMutability": "view",
					"type": "function"
				},
				{
					"inputs": [
						{
							"internalType": "address",
							"name": "newImplementation",
							"type": "address"
						}
					],
					"name": "setImplementation",
					"outputs": [],
					"stateMutability": "nonpayable",
					"type": "function"
				}
			],
			"devdoc": {
				"kind": "dev",
				"methods": {},
				"version": 1
			},
			"evm": {
				"assembly": "    /* \"DelegateCallExample.sol\":109:1062  contract SmallProxy is Proxy {... */\n  mstore(0x40, 0x80)\n  callvalue\n  dup1\n  iszero\n  tag_1\n  jumpi\n  0x00\n  dup1\n  revert\ntag_1:\n  pop\n  dataSize(sub_0)\n  dup1\n  dataOffset(sub_0)\n  0x00\n  codecopy\n  0x00\n  return\nstop\n\nsub_0: assembly {\n        /* \"DelegateCallExample.sol\":109:1062  contract SmallProxy is Proxy {... */\n      mstore(0x40, 0x80)\n      jumpi(tag_1, lt(calldatasize, 0x04))\n      shr(0xe0, calldataload(0x00))\n      dup1\n      0x31fadddf\n      eq\n      tag_3\n      jumpi\n      dup1\n      0xd784d426\n      eq\n      tag_4\n      jumpi\n      dup1\n      0xdf31349e\n      eq\n      tag_5\n      jumpi\n      jump(tag_2)\n    tag_1:\n    tag_2:\n        /* \"@openzeppelin/contracts/proxy/Proxy.sol\":2649:2660  _fallback() */\n      tag_8\n        /* \"@openzeppelin/contracts/proxy/Proxy.sol\":2649:2658  _fallback */\n      tag_9\n        /* \"@openzeppelin/contracts/proxy/Proxy.sol\":2649:2660  _fallback() */\n      jump\t// in\n    tag_8:\n        /* \"DelegateCallExample.sol\":109:1062  contract SmallProxy is Proxy {... */\n      stop\n        /* \"DelegateCallExample.sol\":873:1060  function readStorage()... */\n    tag_3:\n      callvalue\n      dup1\n      iszero\n      tag_10\n      jumpi\n      0x00\n      dup1\n      revert\n    tag_10:\n      pop\n      tag_11\n      tag_12\n      jump\t// in\n    tag_11:\n      mload(0x40)\n      tag_13\n      swap2\n      swap1\n      tag_14\n      jump\t// in\n    tag_13:\n      mload(0x40)\n      dup1\n      swap2\n      sub\n      swap1\n      return\n        /* \"DelegateCallExample.sol\":273:430  function setImplementation(address newImplementation) public {... */\n    tag_4:\n      callvalue\n      dup1\n      iszero\n      tag_15\n      jumpi\n      0x00\n      dup1\n      revert\n    tag_15:\n      pop\n      tag_16\n      0x04\n      dup1\n      calldatasize\n      sub\n      dup2\n      add\n      swap1\n      tag_17\n      swap2\n      swap1\n      tag_18\n      jump\t// in\n    tag_17:\n      tag_19\n      jump\t// in\n    tag_16:\n      stop\n        /* \"DelegateCallExample.sol\":669:867  function getDataToTransact(uint256 numberToUpdate)... */\n    tag_5:\n      callvalue\n      dup1\n      iszero\n      tag_20\n      jumpi\n      0x00\n      dup1\n      revert\n    tag_20:\n      pop\n      tag_21\n      0x04\n      dup1\n      calldatasize\n      sub\n      dup2\n      add\n      swap1\n      tag_22\n      swap2\n      swap1\n      tag_23\n      jump\t// in\n    tag_22:\n      tag_24\n      jump\t// in\n    tag_21:\n      mload(0x40)\n      tag_25\n      swap2\n      swap1\n      tag_26\n      jump\t// in\n    tag_25:\n      mload(0x40)\n      dup1\n      swap2\n      sub\n      swap1\n      return\n        /* \"@openzeppelin/contracts/proxy/Proxy.sol\":2323:2406  function _fallback() internal virtual {... */\n    tag_9:\n        /* \"@openzeppelin/contracts/proxy/Proxy.sol\":2371:2399  _delegate(_implementation()) */\n      tag_28\n        /* \"@openzeppelin/contracts/proxy/Proxy.sol\":2381:2398  _implementation() */\n      tag_29\n        /* \"@openzeppelin/contracts/proxy/Proxy.sol\":2381:2396  _implementation */\n      tag_30\n        /* \"@openzeppelin/contracts/proxy/Proxy.sol\":2381:2398  _implementation() */\n      jump\t// in\n    tag_29:\n        /* \"@openzeppelin/contracts/proxy/Proxy.sol\":2371:2380  _delegate */\n      tag_31\n        /* \"@openzeppelin/contracts/proxy/Proxy.sol\":2371:2399  _delegate(_implementation()) */\n      jump\t// in\n    tag_28:\n        /* \"@openzeppelin/contracts/proxy/Proxy.sol\":2323:2406  function _fallback() internal virtual {... */\n      jump\t// out\n        /* \"DelegateCallExample.sol\":873:1060  function readStorage()... */\n    tag_12:\n        /* \"DelegateCallExample.sol\":941:971  uint256 valueAtStorageSlotZero */\n      0x00\n        /* \"DelegateCallExample.sol\":1042:1043  0 */\n      dup1\n        /* \"DelegateCallExample.sol\":1036:1044  sload(0) */\n      sload\n        /* \"DelegateCallExample.sol\":1010:1044  valueAtStorageSlotZero := sload(0) */\n      swap1\n      pop\n        /* \"DelegateCallExample.sol\":873:1060  function readStorage()... */\n      swap1\n      jump\t// out\n        /* \"DelegateCallExample.sol\":273:430  function setImplementation(address newImplementation) public {... */\n    tag_19:\n        /* \"DelegateCallExample.sol\":396:413  newImplementation */\n      dup1\n        /* \"DelegateCallExample.sol\":374:394  _IMPLEMENTATION_SLOT */\n      0x360894a13ba1a3210667c828492db98dca3e2076cc3735a920a3ca505d382bbc\n        /* \"DelegateCallExample.sol\":367:414  sstore(_IMPLEMENTATION_SLOT, newImplementation) */\n      sstore\n        /* \"DelegateCallExample.sol\":273:430  function setImplementation(address newImplementation) public {... */\n      pop\n      jump\t// out\n        /* \"DelegateCallExample.sol\":669:867  function getDataToTransact(uint256 numberToUpdate)... */\n    tag_24:\n        /* \"DelegateCallExample.sol\":765:777  bytes memory */\n      0x60\n        /* \"DelegateCallExample.sol\":845:859  numberToUpdate */\n      dup2\n        /* \"DelegateCallExample.sol\":800:860  abi.encodeWithSignature(\"setValue(uint256)\", numberToUpdate) */\n      add(0x24, mload(0x40))\n      tag_35\n      swap2\n      swap1\n      tag_14\n      jump\t// in\n    tag_35:\n      mload(0x40)\n      0x20\n      dup2\n      dup4\n      sub\n      sub\n      dup2\n      mstore\n      swap1\n      0x40\n      mstore\n      and(not(0xffffffffffffffffffffffffffffffffffffffffffffffffffffffff), 0x5524107700000000000000000000000000000000000000000000000000000000)\n      0x20\n      dup3\n      add\n      dup1\n      mload\n      0xffffffffffffffffffffffffffffffffffffffffffffffffffffffff\n      dup4\n      dup2\n      dup4\n      and\n      or\n      dup4\n      mstore\n      pop\n      pop\n      pop\n      pop\n        /* \"DelegateCallExample.sol\":793:860  return abi.encodeWithSignature(\"setValue(uint256)\", numberToUpdate) */\n      swap1\n      pop\n        /* \"DelegateCallExample.sol\":669:867  function getDataToTransact(uint256 numberToUpdate)... */\n      swap2\n      swap1\n      pop\n      jump\t// out\n        /* \"DelegateCallExample.sol\":436:663  function _implementation()... */\n    tag_30:\n        /* \"DelegateCallExample.sol\":527:556  address implementationAddress */\n      0x00\n        /* \"DelegateCallExample.sol\":626:646  _IMPLEMENTATION_SLOT */\n      0x360894a13ba1a3210667c828492db98dca3e2076cc3735a920a3ca505d382bbc\n        /* \"DelegateCallExample.sol\":620:647  sload(_IMPLEMENTATION_SLOT) */\n      sload\n        /* \"DelegateCallExample.sol\":595:647  implementationAddress := sload(_IMPLEMENTATION_SLOT) */\n      swap1\n      pop\n        /* \"DelegateCallExample.sol\":436:663  function _implementation()... */\n      swap1\n      jump\t// out\n        /* \"@openzeppelin/contracts/proxy/Proxy.sol\":949:1844  function _delegate(address implementation) internal virtual {... */\n    tag_31:\n        /* \"@openzeppelin/contracts/proxy/Proxy.sol\":1287:1301  calldatasize() */\n      calldatasize\n        /* \"@openzeppelin/contracts/proxy/Proxy.sol\":1284:1285  0 */\n      0x00\n        /* \"@openzeppelin/contracts/proxy/Proxy.sol\":1281:1282  0 */\n      dup1\n        /* \"@openzeppelin/contracts/proxy/Proxy.sol\":1268:1302  calldatacopy(0, 0, calldatasize()) */\n      calldatacopy\n        /* \"@openzeppelin/contracts/proxy/Proxy.sol\":1501:1502  0 */\n      0x00\n        /* \"@openzeppelin/contracts/proxy/Proxy.sol\":1498:1499  0 */\n      dup1\n        /* \"@openzeppelin/contracts/proxy/Proxy.sol\":1482:1496  calldatasize() */\n      calldatasize\n        /* \"@openzeppelin/contracts/proxy/Proxy.sol\":1479:1480  0 */\n      0x00\n        /* \"@openzeppelin/contracts/proxy/Proxy.sol\":1463:1477  implementation */\n      dup5\n        /* \"@openzeppelin/contracts/proxy/Proxy.sol\":1456:1461  gas() */\n      gas\n        /* \"@openzeppelin/contracts/proxy/Proxy.sol\":1443:1503  delegatecall(gas(), implementation, 0, calldatasize(), 0, 0) */\n      delegatecall\n        /* \"@openzeppelin/contracts/proxy/Proxy.sol\":1577:1593  returndatasize() */\n      returndatasize\n        /* \"@openzeppelin/contracts/proxy/Proxy.sol\":1574:1575  0 */\n      0x00\n        /* \"@openzeppelin/contracts/proxy/Proxy.sol\":1571:1572  0 */\n      dup1\n        /* \"@openzeppelin/contracts/proxy/Proxy.sol\":1556:1594  returndatacopy(0, 0, returndatasize()) */\n      returndatacopy\n        /* \"@openzeppelin/contracts/proxy/Proxy.sol\":1615:1621  result */\n      dup1\n        /* \"@openzeppelin/contracts/proxy/Proxy.sol\":1687:1688  0 */\n      0x00\n        /* \"@openzeppelin/contracts/proxy/Proxy.sol\":1682:1748  case 0 {... */\n      dup2\n      eq\n      tag_39\n      jumpi\n        /* \"@openzeppelin/contracts/proxy/Proxy.sol\":1797:1813  returndatasize() */\n      returndatasize\n        /* \"@openzeppelin/contracts/proxy/Proxy.sol\":1794:1795  0 */\n      0x00\n        /* \"@openzeppelin/contracts/proxy/Proxy.sol\":1787:1814  return(0, returndatasize()) */\n      return\n        /* \"@openzeppelin/contracts/proxy/Proxy.sol\":1682:1748  case 0 {... */\n    tag_39:\n        /* \"@openzeppelin/contracts/proxy/Proxy.sol\":1717:1733  returndatasize() */\n      returndatasize\n        /* \"@openzeppelin/contracts/proxy/Proxy.sol\":1714:1715  0 */\n      0x00\n        /* \"@openzeppelin/contracts/proxy/Proxy.sol\":1707:1734  revert(0, returndatasize()) */\n      revert\n        /* \"#utility.yul\":7:84   */\n    tag_40:\n        /* \"#utility.yul\":44:51   */\n      0x00\n        /* \"#utility.yul\":73:78   */\n      dup2\n        /* \"#utility.yul\":62:78   */\n      swap1\n      pop\n        /* \"#utility.yul\":7:84   */\n      swap2\n      swap1\n      pop\n      jump\t// out\n        /* \"#utility.yul\":90:208   */\n    tag_41:\n        /* \"#utility.yul\":177:201   */\n      tag_59\n        /* \"#utility.yul\":195:200   */\n      dup2\n        /* \"#utility.yul\":177:201   */\n      tag_40\n      jump\t// in\n    tag_59:\n        /* \"#utility.yul\":172:175   */\n      dup3\n        /* \"#utility.yul\":165:202   */\n      mstore\n        /* \"#utility.yul\":90:208   */\n      pop\n      pop\n      jump\t// out\n        /* \"#utility.yul\":214:436   */\n    tag_14:\n        /* \"#utility.yul\":307:311   */\n      0x00\n        /* \"#utility.yul\":345:347   */\n      0x20\n        /* \"#utility.yul\":334:343   */\n      dup3\n        /* \"#utility.yul\":330:348   */\n      add\n        /* \"#utility.yul\":322:348   */\n      swap1\n      pop\n        /* \"#utility.yul\":358:429   */\n      tag_61\n        /* \"#utility.yul\":426:427   */\n      0x00\n        /* \"#utility.yul\":415:424   */\n      dup4\n        /* \"#utility.yul\":411:428   */\n      add\n        /* \"#utility.yul\":402:408   */\n      dup5\n        /* \"#utility.yul\":358:429   */\n      tag_41\n      jump\t// in\n    tag_61:\n        /* \"#utility.yul\":214:436   */\n      swap3\n      swap2\n      pop\n      pop\n      jump\t// out\n        /* \"#utility.yul\":523:640   */\n    tag_43:\n        /* \"#utility.yul\":632:633   */\n      0x00\n        /* \"#utility.yul\":629:630   */\n      dup1\n        /* \"#utility.yul\":622:634   */\n      revert\n        /* \"#utility.yul\":769:895   */\n    tag_45:\n        /* \"#utility.yul\":806:813   */\n      0x00\n        /* \"#utility.yul\":846:888   */\n      0xffffffffffffffffffffffffffffffffffffffff\n        /* \"#utility.yul\":839:844   */\n      dup3\n        /* \"#utility.yul\":835:889   */\n      and\n        /* \"#utility.yul\":824:889   */\n      swap1\n      pop\n        /* \"#utility.yul\":769:895   */\n      swap2\n      swap1\n      pop\n      jump\t// out\n        /* \"#utility.yul\":901:997   */\n    tag_46:\n        /* \"#utility.yul\":938:945   */\n      0x00\n        /* \"#utility.yul\":967:991   */\n      tag_67\n        /* \"#utility.yul\":985:990   */\n      dup3\n        /* \"#utility.yul\":967:991   */\n      tag_45\n      jump\t// in\n    tag_67:\n        /* \"#utility.yul\":956:991   */\n      swap1\n      pop\n        /* \"#utility.yul\":901:997   */\n      swap2\n      swap1\n      pop\n      jump\t// out\n        /* \"#utility.yul\":1003:1125   */\n    tag_47:\n        /* \"#utility.yul\":1076:1100   */\n      tag_69\n        /* \"#utility.yul\":1094:1099   */\n      dup2\n        /* \"#utility.yul\":1076:1100   */\n      tag_46\n      jump\t// in\n    tag_69:\n        /* \"#utility.yul\":1069:1074   */\n      dup2\n        /* \"#utility.yul\":1066:1101   */\n      eq\n        /* \"#utility.yul\":1056:1119   */\n      tag_70\n      jumpi\n        /* \"#utility.yul\":1115:1116   */\n      0x00\n        /* \"#utility.yul\":1112:1113   */\n      dup1\n        /* \"#utility.yul\":1105:1117   */\n      revert\n        /* \"#utility.yul\":1056:1119   */\n    tag_70:\n        /* \"#utility.yul\":1003:1125   */\n      pop\n      jump\t// out\n        /* \"#utility.yul\":1131:1270   */\n    tag_48:\n        /* \"#utility.yul\":1177:1182   */\n      0x00\n        /* \"#utility.yul\":1215:1221   */\n      dup2\n        /* \"#utility.yul\":1202:1222   */\n      calldataload\n        /* \"#utility.yul\":1193:1222   */\n      swap1\n      pop\n        /* \"#utility.yul\":1231:1264   */\n      tag_72\n        /* \"#utility.yul\":1258:1263   */\n      dup2\n        /* \"#utility.yul\":1231:1264   */\n      tag_47\n      jump\t// in\n    tag_72:\n        /* \"#utility.yul\":1131:1270   */\n      swap3\n      swap2\n      pop\n      pop\n      jump\t// out\n        /* \"#utility.yul\":1276:1605   */\n    tag_18:\n        /* \"#utility.yul\":1335:1341   */\n      0x00\n        /* \"#utility.yul\":1384:1386   */\n      0x20\n        /* \"#utility.yul\":1372:1381   */\n      dup3\n        /* \"#utility.yul\":1363:1370   */\n      dup5\n        /* \"#utility.yul\":1359:1382   */\n      sub\n        /* \"#utility.yul\":1355:1387   */\n      slt\n        /* \"#utility.yul\":1352:1471   */\n      iszero\n      tag_74\n      jumpi\n        /* \"#utility.yul\":1390:1469   */\n      tag_75\n      tag_43\n      jump\t// in\n    tag_75:\n        /* \"#utility.yul\":1352:1471   */\n    tag_74:\n        /* \"#utility.yul\":1510:1511   */\n      0x00\n        /* \"#utility.yul\":1535:1588   */\n      tag_76\n        /* \"#utility.yul\":1580:1587   */\n      dup5\n        /* \"#utility.yul\":1571:1577   */\n      dup3\n        /* \"#utility.yul\":1560:1569   */\n      dup6\n        /* \"#utility.yul\":1556:1578   */\n      add\n        /* \"#utility.yul\":1535:1588   */\n      tag_48\n      jump\t// in\n    tag_76:\n        /* \"#utility.yul\":1525:1588   */\n      swap2\n      pop\n        /* \"#utility.yul\":1481:1598   */\n      pop\n        /* \"#utility.yul\":1276:1605   */\n      swap3\n      swap2\n      pop\n      pop\n      jump\t// out\n        /* \"#utility.yul\":1611:1733   */\n    tag_49:\n        /* \"#utility.yul\":1684:1708   */\n      tag_78\n        /* \"#utility.yul\":1702:1707   */\n      dup2\n        /* \"#utility.yul\":1684:1708   */\n      tag_40\n      jump\t// in\n    tag_78:\n        /* \"#utility.yul\":1677:1682   */\n      dup2\n        /* \"#utility.yul\":1674:1709   */\n      eq\n        /* \"#utility.yul\":1664:1727   */\n      tag_79\n      jumpi\n        /* \"#utility.yul\":1723:1724   */\n      0x00\n        /* \"#utility.yul\":1720:1721   */\n      dup1\n        /* \"#utility.yul\":1713:1725   */\n      revert\n        /* \"#utility.yul\":1664:1727   */\n    tag_79:\n        /* \"#utility.yul\":1611:1733   */\n      pop\n      jump\t// out\n        /* \"#utility.yul\":1739:1878   */\n    tag_50:\n        /* \"#utility.yul\":1785:1790   */\n      0x00\n        /* \"#utility.yul\":1823:1829   */\n      dup2\n        /* \"#utility.yul\":1810:1830   */\n      calldataload\n        /* \"#utility.yul\":1801:1830   */\n      swap1\n      pop\n        /* \"#utility.yul\":1839:1872   */\n      tag_81\n        /* \"#utility.yul\":1866:1871   */\n      dup2\n        /* \"#utility.yul\":1839:1872   */\n      tag_49\n      jump\t// in\n    tag_81:\n        /* \"#utility.yul\":1739:1878   */\n      swap3\n      swap2\n      pop\n      pop\n      jump\t// out\n        /* \"#utility.yul\":1884:2213   */\n    tag_23:\n        /* \"#utility.yul\":1943:1949   */\n      0x00\n        /* \"#utility.yul\":1992:1994   */\n      0x20\n        /* \"#utility.yul\":1980:1989   */\n      dup3\n        /* \"#utility.yul\":1971:1978   */\n      dup5\n        /* \"#utility.yul\":1967:1990   */\n      sub\n        /* \"#utility.yul\":1963:1995   */\n      slt\n        /* \"#utility.yul\":1960:2079   */\n      iszero\n      tag_83\n      jumpi\n        /* \"#utility.yul\":1998:2077   */\n      tag_84\n      tag_43\n      jump\t// in\n    tag_84:\n        /* \"#utility.yul\":1960:2079   */\n    tag_83:\n        /* \"#utility.yul\":2118:2119   */\n      0x00\n        /* \"#utility.yul\":2143:2196   */\n      tag_85\n        /* \"#utility.yul\":2188:2195   */\n      dup5\n        /* \"#utility.yul\":2179:2185   */\n      dup3\n        /* \"#utility.yul\":2168:2177   */\n      dup6\n        /* \"#utility.yul\":2164:2186   */\n      add\n        /* \"#utility.yul\":2143:2196   */\n      tag_50\n      jump\t// in\n    tag_85:\n        /* \"#utility.yul\":2133:2196   */\n      swap2\n      pop\n        /* \"#utility.yul\":2089:2206   */\n      pop\n        /* \"#utility.yul\":1884:2213   */\n      swap3\n      swap2\n      pop\n      pop\n      jump\t// out\n        /* \"#utility.yul\":2219:2317   */\n    tag_51:\n        /* \"#utility.yul\":2270:2276   */\n      0x00\n        /* \"#utility.yul\":2304:2309   */\n      dup2\n        /* \"#utility.yul\":2298:2310   */\n      mload\n        /* \"#utility.yul\":2288:2310   */\n      swap1\n      pop\n        /* \"#utility.yul\":2219:2317   */\n      swap2\n      swap1\n      pop\n      jump\t// out\n        /* \"#utility.yul\":2323:2491   */\n    tag_52:\n        /* \"#utility.yul\":2406:2417   */\n      0x00\n        /* \"#utility.yul\":2440:2446   */\n      dup3\n        /* \"#utility.yul\":2435:2438   */\n      dup3\n        /* \"#utility.yul\":2428:2447   */\n      mstore\n        /* \"#utility.yul\":2480:2484   */\n      0x20\n        /* \"#utility.yul\":2475:2478   */\n      dup3\n        /* \"#utility.yul\":2471:2485   */\n      add\n        /* \"#utility.yul\":2456:2485   */\n      swap1\n      pop\n        /* \"#utility.yul\":2323:2491   */\n      swap3\n      swap2\n      pop\n      pop\n      jump\t// out\n        /* \"#utility.yul\":2497:2636   */\n    tag_53:\n        /* \"#utility.yul\":2586:2592   */\n      dup3\n        /* \"#utility.yul\":2581:2584   */\n      dup2\n        /* \"#utility.yul\":2576:2579   */\n      dup4\n        /* \"#utility.yul\":2570:2593   */\n      mcopy\n        /* \"#utility.yul\":2627:2628   */\n      0x00\n        /* \"#utility.yul\":2618:2624   */\n      dup4\n        /* \"#utility.yul\":2613:2616   */\n      dup4\n        /* \"#utility.yul\":2609:2625   */\n      add\n        /* \"#utility.yul\":2602:2629   */\n      mstore\n        /* \"#utility.yul\":2497:2636   */\n      pop\n      pop\n      pop\n      jump\t// out\n        /* \"#utility.yul\":2642:2744   */\n    tag_54:\n        /* \"#utility.yul\":2683:2689   */\n      0x00\n        /* \"#utility.yul\":2734:2736   */\n      0x1f\n        /* \"#utility.yul\":2730:2737   */\n      not\n        /* \"#utility.yul\":2725:2727   */\n      0x1f\n        /* \"#utility.yul\":2718:2723   */\n      dup4\n        /* \"#utility.yul\":2714:2728   */\n      add\n        /* \"#utility.yul\":2710:2738   */\n      and\n        /* \"#utility.yul\":2700:2738   */\n      swap1\n      pop\n        /* \"#utility.yul\":2642:2744   */\n      swap2\n      swap1\n      pop\n      jump\t// out\n        /* \"#utility.yul\":2750:3123   */\n    tag_55:\n        /* \"#utility.yul\":2836:2839   */\n      0x00\n        /* \"#utility.yul\":2864:2902   */\n      tag_91\n        /* \"#utility.yul\":2896:2901   */\n      dup3\n        /* \"#utility.yul\":2864:2902   */\n      tag_51\n      jump\t// in\n    tag_91:\n        /* \"#utility.yul\":2918:2988   */\n      tag_92\n        /* \"#utility.yul\":2981:2987   */\n      dup2\n        /* \"#utility.yul\":2976:2979   */\n      dup6\n        /* \"#utility.yul\":2918:2988   */\n      tag_52\n      jump\t// in\n    tag_92:\n        /* \"#utility.yul\":2911:2988   */\n      swap4\n      pop\n        /* \"#utility.yul\":2997:3062   */\n      tag_93\n        /* \"#utility.yul\":3055:3061   */\n      dup2\n        /* \"#utility.yul\":3050:3053   */\n      dup6\n        /* \"#utility.yul\":3043:3047   */\n      0x20\n        /* \"#utility.yul\":3036:3041   */\n      dup7\n        /* \"#utility.yul\":3032:3048   */\n      add\n        /* \"#utility.yul\":2997:3062   */\n      tag_53\n      jump\t// in\n    tag_93:\n        /* \"#utility.yul\":3087:3116   */\n      tag_94\n        /* \"#utility.yul\":3109:3115   */\n      dup2\n        /* \"#utility.yul\":3087:3116   */\n      tag_54\n      jump\t// in\n    tag_94:\n        /* \"#utility.yul\":3082:3085   */\n      dup5\n        /* \"#utility.yul\":3078:3117   */\n      add\n        /* \"#utility.yul\":3071:3117   */\n      swap2\n      pop\n        /* \"#utility.yul\":2840:3123   */\n      pop\n        /* \"#utility.yul\":2750:3123   */\n      swap3\n      swap2\n      pop\n      pop\n      jump\t// out\n        /* \"#utility.yul\":3129:3438   */\n    tag_26:\n        /* \"#utility.yul\":3240:3244   */\n      0x00\n        /* \"#utility.yul\":3278:3280   */\n      0x20\n        /* \"#utility.yul\":3267:3276   */\n      dup3\n        /* \"#utility.yul\":3263:3281   */\n      add\n        /* \"#utility.yul\":3255:3281   */\n      swap1\n      pop\n        /* \"#utility.yul\":3327:3336   */\n      dup2\n        /* \"#utility.yul\":3321:3325   */\n      dup2\n        /* \"#utility.yul\":3317:3337   */\n      sub\n        /* \"#utility.yul\":3313:3314   */\n      0x00\n        /* \"#utility.yul\":3302:3311   */\n      dup4\n        /* \"#utility.yul\":3298:3315   */\n      add\n        /* \"#utility.yul\":3291:3338   */\n      mstore\n        /* \"#utility.yul\":3355:3431   */\n      tag_96\n        /* \"#utility.yul\":3426:3430   */\n      dup2\n        /* \"#utility.yul\":3417:3423   */\n      dup5\n        /* \"#utility.yul\":3355:3431   */\n      tag_55\n      jump\t// in\n    tag_96:\n        /* \"#utility.yul\":3347:3431   */\n      swap1\n      pop\n        /* \"#utility.yul\":3129:3438   */\n      swap3\n      swap2\n      pop\n      pop\n      jump\t// out\n\n    auxdata: 0xa2646970667358221220de8f3c8c5852166a6a6480fef899738eddf37a936d8fa220fbd92617f389604664736f6c634300081a0033\n}\n",
				"bytecode": {
					"linkReferences": {},
					"object": "6080604052348015600e575f80fd5b506103c38061001c5f395ff3fe608060405260043610610037575f3560e01c806331fadddf14610042578063d784d4261461006c578063df31349e1461009457610038565b5b6100406100d0565b005b34801561004d575f80fd5b506100566100e2565b6040516100639190610206565b60405180910390f35b348015610077575f80fd5b50610092600480360381019061008d919061027d565b6100ea565b005b34801561009f575f80fd5b506100ba60048036038101906100b591906102d2565b610110565b6040516100c7919061036d565b60405180910390f35b6100e06100db6101a7565b6101cf565b565b5f8054905090565b807f360894a13ba1a3210667c828492db98dca3e2076cc3735a920a3ca505d382bbc5550565b6060816040516024016101239190610206565b6040516020818303038152906040527f55241077000000000000000000000000000000000000000000000000000000007bffffffffffffffffffffffffffffffffffffffffffffffffffffffff19166020820180517bffffffffffffffffffffffffffffffffffffffffffffffffffffffff83818316178352505050509050919050565b5f7f360894a13ba1a3210667c828492db98dca3e2076cc3735a920a3ca505d382bbc54905090565b365f80375f80365f845af43d5f803e805f81146101ea573d5ff35b3d5ffd5b5f819050919050565b610200816101ee565b82525050565b5f6020820190506102195f8301846101f7565b92915050565b5f80fd5b5f73ffffffffffffffffffffffffffffffffffffffff82169050919050565b5f61024c82610223565b9050919050565b61025c81610242565b8114610266575f80fd5b50565b5f8135905061027781610253565b92915050565b5f602082840312156102925761029161021f565b5b5f61029f84828501610269565b91505092915050565b6102b1816101ee565b81146102bb575f80fd5b50565b5f813590506102cc816102a8565b92915050565b5f602082840312156102e7576102e661021f565b5b5f6102f4848285016102be565b91505092915050565b5f81519050919050565b5f82825260208201905092915050565b8281835e5f83830152505050565b5f601f19601f8301169050919050565b5f61033f826102fd565b6103498185610307565b9350610359818560208601610317565b61036281610325565b840191505092915050565b5f6020820190508181035f8301526103858184610335565b90509291505056fea2646970667358221220de8f3c8c5852166a6a6480fef899738eddf37a936d8fa220fbd92617f389604664736f6c634300081a0033",
					"opcodes": "PUSH1 0x80 PUSH1 0x40 MSTORE CALLVALUE DUP1 ISZERO PUSH1 0xE JUMPI PUSH0 DUP1 REVERT JUMPDEST POP PUSH2 0x3C3 DUP1 PUSH2 0x1C PUSH0 CODECOPY PUSH0 RETURN INVALID PUSH1 0x80 PUSH1 0x40 MSTORE PUSH1 0x4 CALLDATASIZE LT PUSH2 0x37 JUMPI PUSH0 CALLDATALOAD PUSH1 0xE0 SHR DUP1 PUSH4 0x31FADDDF EQ PUSH2 0x42 JUMPI DUP1 PUSH4 0xD784D426 EQ PUSH2 0x6C JUMPI DUP1 PUSH4 0xDF31349E EQ PUSH2 0x94 JUMPI PUSH2 0x38 JUMP JUMPDEST JUMPDEST PUSH2 0x40 PUSH2 0xD0 JUMP JUMPDEST STOP JUMPDEST CALLVALUE DUP1 ISZERO PUSH2 0x4D JUMPI PUSH0 DUP1 REVERT JUMPDEST POP PUSH2 0x56 PUSH2 0xE2 JUMP JUMPDEST PUSH1 0x40 MLOAD PUSH2 0x63 SWAP2 SWAP1 PUSH2 0x206 JUMP JUMPDEST PUSH1 0x40 MLOAD DUP1 SWAP2 SUB SWAP1 RETURN JUMPDEST CALLVALUE DUP1 ISZERO PUSH2 0x77 JUMPI PUSH0 DUP1 REVERT JUMPDEST POP PUSH2 0x92 PUSH1 0x4 DUP1 CALLDATASIZE SUB DUP2 ADD SWAP1 PUSH2 0x8D SWAP2 SWAP1 PUSH2 0x27D JUMP JUMPDEST PUSH2 0xEA JUMP JUMPDEST STOP JUMPDEST CALLVALUE DUP1 ISZERO PUSH2 0x9F JUMPI PUSH0 DUP1 REVERT JUMPDEST POP PUSH2 0xBA PUSH1 0x4 DUP1 CALLDATASIZE SUB DUP2 ADD SWAP1 PUSH2 0xB5 SWAP2 SWAP1 PUSH2 0x2D2 JUMP JUMPDEST PUSH2 0x110 JUMP JUMPDEST PUSH1 0x40 MLOAD PUSH2 0xC7 SWAP2 SWAP1 PUSH2 0x36D JUMP JUMPDEST PUSH1 0x40 MLOAD DUP1 SWAP2 SUB SWAP1 RETURN JUMPDEST PUSH2 0xE0 PUSH2 0xDB PUSH2 0x1A7 JUMP JUMPDEST PUSH2 0x1CF JUMP JUMPDEST JUMP JUMPDEST PUSH0 DUP1 SLOAD SWAP1 POP SWAP1 JUMP JUMPDEST DUP1 PUSH32 0x360894A13BA1A3210667C828492DB98DCA3E2076CC3735A920A3CA505D382BBC SSTORE POP JUMP JUMPDEST PUSH1 0x60 DUP2 PUSH1 0x40 MLOAD PUSH1 0x24 ADD PUSH2 0x123 SWAP2 SWAP1 PUSH2 0x206 JUMP JUMPDEST PUSH1 0x40 MLOAD PUSH1 0x20 DUP2 DUP4 SUB SUB DUP2 MSTORE SWAP1 PUSH1 0x40 MSTORE PUSH32 0x5524107700000000000000000000000000000000000000000000000000000000 PUSH28 0xFFFFFFFFFFFFFFFFFFFFFFFFFFFFFFFFFFFFFFFFFFFFFFFFFFFFFFFF NOT AND PUSH1 0x20 DUP3 ADD DUP1 MLOAD PUSH28 0xFFFFFFFFFFFFFFFFFFFFFFFFFFFFFFFFFFFFFFFFFFFFFFFFFFFFFFFF DUP4 DUP2 DUP4 AND OR DUP4 MSTORE POP POP POP POP SWAP1 POP SWAP2 SWAP1 POP JUMP JUMPDEST PUSH0 PUSH32 0x360894A13BA1A3210667C828492DB98DCA3E2076CC3735A920A3CA505D382BBC SLOAD SWAP1 POP SWAP1 JUMP JUMPDEST CALLDATASIZE PUSH0 DUP1 CALLDATACOPY PUSH0 DUP1 CALLDATASIZE PUSH0 DUP5 GAS DELEGATECALL RETURNDATASIZE PUSH0 DUP1 RETURNDATACOPY DUP1 PUSH0 DUP2 EQ PUSH2 0x1EA JUMPI RETURNDATASIZE PUSH0 RETURN JUMPDEST RETURNDATASIZE PUSH0 REVERT JUMPDEST PUSH0 DUP2 SWAP1 POP SWAP2 SWAP1 POP JUMP JUMPDEST PUSH2 0x200 DUP2 PUSH2 0x1EE JUMP JUMPDEST DUP3 MSTORE POP POP JUMP JUMPDEST PUSH0 PUSH1 0x20 DUP3 ADD SWAP1 POP PUSH2 0x219 PUSH0 DUP4 ADD DUP5 PUSH2 0x1F7 JUMP JUMPDEST SWAP3 SWAP2 POP POP JUMP JUMPDEST PUSH0 DUP1 REVERT JUMPDEST PUSH0 PUSH20 0xFFFFFFFFFFFFFFFFFFFFFFFFFFFFFFFFFFFFFFFF DUP3 AND SWAP1 POP SWAP2 SWAP1 POP JUMP JUMPDEST PUSH0 PUSH2 0x24C DUP3 PUSH2 0x223 JUMP JUMPDEST SWAP1 POP SWAP2 SWAP1 POP JUMP JUMPDEST PUSH2 0x25C DUP2 PUSH2 0x242 JUMP JUMPDEST DUP2 EQ PUSH2 0x266 JUMPI PUSH0 DUP1 REVERT JUMPDEST POP JUMP JUMPDEST PUSH0 DUP2 CALLDATALOAD SWAP1 POP PUSH2 0x277 DUP2 PUSH2 0x253 JUMP JUMPDEST SWAP3 SWAP2 POP POP JUMP JUMPDEST PUSH0 PUSH1 0x20 DUP3 DUP5 SUB SLT ISZERO PUSH2 0x292 JUMPI PUSH2 0x291 PUSH2 0x21F JUMP JUMPDEST JUMPDEST PUSH0 PUSH2 0x29F DUP5 DUP3 DUP6 ADD PUSH2 0x269 JUMP JUMPDEST SWAP2 POP POP SWAP3 SWAP2 POP POP JUMP JUMPDEST PUSH2 0x2B1 DUP2 PUSH2 0x1EE JUMP JUMPDEST DUP2 EQ PUSH2 0x2BB JUMPI PUSH0 DUP1 REVERT JUMPDEST POP JUMP JUMPDEST PUSH0 DUP2 CALLDATALOAD SWAP1 POP PUSH2 0x2CC DUP2 PUSH2 0x2A8 JUMP JUMPDEST SWAP3 SWAP2 POP POP JUMP JUMPDEST PUSH0 PUSH1 0x20 DUP3 DUP5 SUB SLT ISZERO PUSH2 0x2E7 JUMPI PUSH2 0x2E6 PUSH2 0x21F JUMP JUMPDEST JUMPDEST PUSH0 PUSH2 0x2F4 DUP5 DUP3 DUP6 ADD PUSH2 0x2BE JUMP JUMPDEST SWAP2 POP POP SWAP3 SWAP2 POP POP JUMP JUMPDEST PUSH0 DUP2 MLOAD SWAP1 POP SWAP2 SWAP1 POP JUMP JUMPDEST PUSH0 DUP3 DUP3 MSTORE PUSH1 0x20 DUP3 ADD SWAP1 POP SWAP3 SWAP2 POP POP JUMP JUMPDEST DUP3 DUP2 DUP4 MCOPY PUSH0 DUP4 DUP4 ADD MSTORE POP POP POP JUMP JUMPDEST PUSH0 PUSH1 0x1F NOT PUSH1 0x1F DUP4 ADD AND SWAP1 POP SWAP2 SWAP1 POP JUMP JUMPDEST PUSH0 PUSH2 0x33F DUP3 PUSH2 0x2FD JUMP JUMPDEST PUSH2 0x349 DUP2 DUP6 PUSH2 0x307 JUMP JUMPDEST SWAP4 POP PUSH2 0x359 DUP2 DUP6 PUSH1 0x20 DUP7 ADD PUSH2 0x317 JUMP JUMPDEST PUSH2 0x362 DUP2 PUSH2 0x325 JUMP JUMPDEST DUP5 ADD SWAP2 POP POP SWAP3 SWAP2 POP POP JUMP JUMPDEST PUSH0 PUSH1 0x20 DUP3 ADD SWAP1 POP DUP2 DUP2 SUB PUSH0 DUP4 ADD MSTORE PUSH2 0x385 DUP2 DUP5 PUSH2 0x335 JUMP JUMPDEST SWAP1 POP SWAP3 SWAP2 POP POP JUMP INVALID LOG2 PUSH5 0x6970667358 0x22 SLT KECCAK256 0xDE DUP16 EXTCODECOPY DUP13 PC MSTORE AND PUSH11 0x6A6480FEF899738EDDF37A SWAP4 PUSH14 0x8FA220FBD92617F389604664736F PUSH13 0x634300081A0033000000000000 "
				},
				"gasEstimates": {
					"creation": {
						"codeDepositCost": "192600",
						"executionCost": "236",
						"totalCost": "192836"
					},
					"external": {
						"": "infinite",
						"getDataToTransact(uint256)": "infinite",
						"readStorage()": "2410",
						"setImplementation(address)": "22555"
					},
					"internal": {
						"_implementation()": "2122"
					}
				},
				"methodIdentifiers": {
					"getDataToTransact(uint256)": "df31349e",
					"readStorage()": "31fadddf",
					"setImplementation(address)": "d784d426"
				}
			},
			"storageLayout": {
				"storage": [],
				"types": null
			},
			"userdoc": {
				"kind": "user",
				"methods": {},
				"version": 1
			}
		}
	}
}